{
  "_format": "hh-sol-artifact-1",
  "contractName": "AnimalTracking",
  "sourceName": "contracts/AnimalTracking.sol",
  "abi": [
    {
      "inputs": [],
      "stateMutability": "nonpayable",
      "type": "constructor"
    },
    {
      "inputs": [
        {
          "internalType": "address",
          "name": "owner",
          "type": "address"
        }
      ],
      "name": "OwnableInvalidOwner",
      "type": "error"
    },
    {
      "inputs": [
        {
          "internalType": "address",
          "name": "account",
          "type": "address"
        }
      ],
      "name": "OwnableUnauthorizedAccount",
      "type": "error"
    },
    {
      "anonymous": false,
      "inputs": [
        {
          "indexed": true,
          "internalType": "uint256",
          "name": "animalId",
          "type": "uint256"
        },
        {
          "indexed": true,
          "internalType": "uint256",
          "name": "eventId",
          "type": "uint256"
        },
        {
          "indexed": false,
          "internalType": "uint8",
          "name": "eventType",
          "type": "uint8"
        },
        {
          "indexed": false,
          "internalType": "string",
          "name": "dataHash",
          "type": "string"
        },
        {
          "indexed": false,
          "internalType": "address",
          "name": "registrant",
          "type": "address"
        },
        {
          "indexed": false,
          "internalType": "bytes32",
          "name": "userHash",
          "type": "bytes32"
        }
      ],
      "name": "EventRegistered",
      "type": "event"
    },
    {
      "anonymous": false,
      "inputs": [
        {
          "indexed": true,
          "internalType": "address",
          "name": "previousOwner",
          "type": "address"
        },
        {
          "indexed": true,
          "internalType": "address",
          "name": "newOwner",
          "type": "address"
        }
      ],
      "name": "OwnershipTransferred",
      "type": "event"
    },
    {
      "inputs": [
        {
          "internalType": "address",
          "name": "_registrar",
          "type": "address"
        }
      ],
      "name": "addRegistrar",
      "outputs": [],
      "stateMutability": "nonpayable",
      "type": "function"
    },
    {
      "inputs": [
        {
          "internalType": "uint256",
          "name": "_animalId",
          "type": "uint256"
        },
        {
          "internalType": "uint256",
          "name": "_index",
          "type": "uint256"
        }
      ],
      "name": "getEventByIndex",
      "outputs": [
        {
          "internalType": "uint256",
          "name": "eventId",
          "type": "uint256"
        },
        {
          "internalType": "uint256",
          "name": "animalId",
          "type": "uint256"
        },
        {
          "internalType": "uint8",
          "name": "eventType",
          "type": "uint8"
        },
        {
          "internalType": "string",
          "name": "dataHash",
          "type": "string"
        },
        {
          "internalType": "address",
          "name": "registrant",
          "type": "address"
        },
        {
          "internalType": "bytes32",
          "name": "userHash",
          "type": "bytes32"
        },
        {
          "internalType": "uint256",
          "name": "timestamp",
          "type": "uint256"
        }
      ],
      "stateMutability": "view",
      "type": "function"
    },
    {
      "inputs": [
        {
          "internalType": "uint256",
          "name": "_animalId",
          "type": "uint256"
        }
      ],
      "name": "getEventsByAnimal",
      "outputs": [
        {
          "components": [
            {
              "internalType": "uint256",
              "name": "eventId",
              "type": "uint256"
            },
            {
              "internalType": "uint256",
              "name": "animalId",
              "type": "uint256"
            },
            {
              "internalType": "uint8",
              "name": "eventType",
              "type": "uint8"
            },
            {
              "internalType": "string",
              "name": "dataHash",
              "type": "string"
            },
            {
              "internalType": "address",
              "name": "registrant",
              "type": "address"
            },
            {
              "internalType": "bytes32",
              "name": "userHash",
              "type": "bytes32"
            },
            {
              "internalType": "uint256",
              "name": "timestamp",
              "type": "uint256"
            }
          ],
          "internalType": "struct AnimalTracking.CriticEvent[]",
          "name": "",
          "type": "tuple[]"
        }
      ],
      "stateMutability": "view",
      "type": "function"
    },
    {
      "inputs": [
        {
          "internalType": "uint256",
          "name": "_animalId",
          "type": "uint256"
        }
      ],
      "name": "getNumberOfEvents",
      "outputs": [
        {
          "internalType": "uint256",
          "name": "",
          "type": "uint256"
        }
      ],
      "stateMutability": "view",
      "type": "function"
    },
    {
      "inputs": [],
      "name": "isActive",
      "outputs": [
        {
          "internalType": "bool",
          "name": "",
          "type": "bool"
        }
      ],
      "stateMutability": "pure",
      "type": "function"
    },
    {
      "inputs": [],
      "name": "owner",
      "outputs": [
        {
          "internalType": "address",
          "name": "",
          "type": "address"
        }
      ],
      "stateMutability": "view",
      "type": "function"
    },
    {
      "inputs": [
        {
          "internalType": "uint256",
          "name": "_eventId",
          "type": "uint256"
        },
        {
          "internalType": "uint256",
          "name": "_animalId",
          "type": "uint256"
        },
        {
          "internalType": "uint8",
          "name": "_eventType",
          "type": "uint8"
        },
        {
          "internalType": "string",
          "name": "_dataHash",
          "type": "string"
        },
        {
          "internalType": "bytes32",
          "name": "_userHash",
          "type": "bytes32"
        }
      ],
      "name": "registerEvent",
      "outputs": [],
      "stateMutability": "nonpayable",
      "type": "function"
    },
    {
      "inputs": [
        {
          "internalType": "address",
          "name": "_registrar",
          "type": "address"
        }
      ],
      "name": "removeRegistrar",
      "outputs": [],
      "stateMutability": "nonpayable",
      "type": "function"
    },
    {
      "inputs": [],
      "name": "renounceOwnership",
      "outputs": [],
      "stateMutability": "nonpayable",
      "type": "function"
    },
    {
      "inputs": [
        {
          "internalType": "address",
          "name": "newOwner",
          "type": "address"
        }
      ],
      "name": "transferOwnership",
      "outputs": [],
      "stateMutability": "nonpayable",
      "type": "function"
    }
  ],
  "bytecode": "0x608060405234801561001057600080fd5b5033600073ffffffffffffffffffffffffffffffffffffffff168173ffffffffffffffffffffffffffffffffffffffff16036100845760006040517f1e4fbdf700000000000000000000000000000000000000000000000000000000815260040161007b91906101f6565b60405180910390fd5b610093816100f160201b60201c565b506001600260003373ffffffffffffffffffffffffffffffffffffffff1673ffffffffffffffffffffffffffffffffffffffff16815260200190815260200160002060006101000a81548160ff021916908315150217905550610211565b60008060009054906101000a900473ffffffffffffffffffffffffffffffffffffffff169050816000806101000a81548173ffffffffffffffffffffffffffffffffffffffff021916908373ffffffffffffffffffffffffffffffffffffffff1602179055508173ffffffffffffffffffffffffffffffffffffffff168173ffffffffffffffffffffffffffffffffffffffff167f8be0079c531659141344cd1fd0a4f28419497f9722a3daafe3b4186f6b6457e060405160405180910390a35050565b600073ffffffffffffffffffffffffffffffffffffffff82169050919050565b60006101e0826101b5565b9050919050565b6101f0816101d5565b82525050565b600060208201905061020b60008301846101e7565b92915050565b61178b806102206000396000f3fe608060405234801561001057600080fd5b506004361061009e5760003560e01c806390ecd3f01161006657806390ecd3f014610135578063af92a69314610165578063ba904eed14610181578063f2fde38b1461019d578063fa2aeb12146101b95761009e565b806322f3e2d4146100a35780633cc6b52f146100c15780636eaa4bed146100dd578063715018a61461010d5780638da5cb5b14610117575b600080fd5b6100ab6101ef565b6040516100b89190610ba0565b60405180910390f35b6100db60048036038101906100d69190610ccf565b6101f8565b005b6100f760048036038101906100f29190610d69565b6104d9565b6040516101049190610da5565b60405180910390f35b6101156104f9565b005b61011f61050d565b60405161012c9190610e01565b60405180910390f35b61014f600480360381019061014a9190610d69565b610536565b60405161015c9190611046565b60405180910390f35b61017f600480360381019061017a9190611094565b6106d5565b005b61019b60048036038101906101969190611094565b610738565b005b6101b760048036038101906101b29190611094565b61079b565b005b6101d360048036038101906101ce91906110c1565b610821565b6040516101e69796959493929190611169565b60405180910390f35b60006001905090565b60011515600260003373ffffffffffffffffffffffffffffffffffffffff1673ffffffffffffffffffffffffffffffffffffffff16815260200190815260200160002060009054906101000a900460ff1615151461028b576040517f08c379a00000000000000000000000000000000000000000000000000000000081526004016102829061122b565b60405180910390fd5b600083839050116102d1576040517f08c379a00000000000000000000000000000000000000000000000000000000081526004016102c890611297565b60405180910390fd5b6000801b8103610316576040517f08c379a000000000000000000000000000000000000000000000000000000000815260040161030d90611303565b60405180910390fd5b60006040518060e001604052808881526020018781526020018660ff16815260200185858080601f016020809104026020016040519081016040528093929190818152602001838380828437600081840152601f19601f8201169050808301925050505050505081526020013373ffffffffffffffffffffffffffffffffffffffff16815260200183815260200142815250905060016000878152602001908152602001600020819080600181540180825580915050600190039060005260206000209060070201600090919091909150600082015181600001556020820151816001015560408201518160020160006101000a81548160ff021916908360ff1602179055506060820151816003019081610431919061155e565b5060808201518160040160006101000a81548173ffffffffffffffffffffffffffffffffffffffff021916908373ffffffffffffffffffffffffffffffffffffffff16021790555060a0820151816005015560c08201518160060155505086867f1932cedb8a340d2c5ab9463a9f8c8ca8355354c24c44a075a485b8136140076187878733886040516104c895949392919061166c565b60405180910390a350505050505050565b600060016000838152602001908152602001600020805490509050919050565b610501610a32565b61050b6000610ab9565b565b60008060009054906101000a900473ffffffffffffffffffffffffffffffffffffffff16905090565b606060016000838152602001908152602001600020805480602002602001604051908101604052809291908181526020016000905b828210156106ca57838290600052602060002090600702016040518060e001604052908160008201548152602001600182015481526020016002820160009054906101000a900460ff1660ff1660ff1681526020016003820180546105cf90611381565b80601f01602080910402602001604051908101604052809291908181526020018280546105fb90611381565b80156106485780601f1061061d57610100808354040283529160200191610648565b820191906000526020600020905b81548152906001019060200180831161062b57829003601f168201915b505050505081526020016004820160009054906101000a900473ffffffffffffffffffffffffffffffffffffffff1673ffffffffffffffffffffffffffffffffffffffff1673ffffffffffffffffffffffffffffffffffffffff168152602001600582015481526020016006820154815250508152602001906001019061056b565b505050509050919050565b6106dd610a32565b6001600260008373ffffffffffffffffffffffffffffffffffffffff1673ffffffffffffffffffffffffffffffffffffffff16815260200190815260200160002060006101000a81548160ff02191690831515021790555050565b610740610a32565b6000600260008373ffffffffffffffffffffffffffffffffffffffff1673ffffffffffffffffffffffffffffffffffffffff16815260200190815260200160002060006101000a81548160ff02191690831515021790555050565b6107a3610a32565b600073ffffffffffffffffffffffffffffffffffffffff168173ffffffffffffffffffffffffffffffffffffffff16036108155760006040517f1e4fbdf700000000000000000000000000000000000000000000000000000000815260040161080c9190610e01565b60405180910390fd5b61081e81610ab9565b50565b600080600060606000806000600160008a8152602001908152602001600020805490508810610885576040517f08c379a000000000000000000000000000000000000000000000000000000000815260040161087c90611706565b60405180910390fd5b6000600160008b815260200190815260200160002089815481106108ac576108ab611726565b5b90600052602060002090600702016040518060e001604052908160008201548152602001600182015481526020016002820160009054906101000a900460ff1660ff1660ff16815260200160038201805461090690611381565b80601f016020809104026020016040519081016040528092919081815260200182805461093290611381565b801561097f5780601f106109545761010080835404028352916020019161097f565b820191906000526020600020905b81548152906001019060200180831161096257829003601f168201915b505050505081526020016004820160009054906101000a900473ffffffffffffffffffffffffffffffffffffffff1673ffffffffffffffffffffffffffffffffffffffff1673ffffffffffffffffffffffffffffffffffffffff168152602001600582015481526020016006820154815250509050806000015181602001518260400151836060015184608001518560a001518660c0015197509750975097509750975097505092959891949750929550565b610a3a610b7d565b73ffffffffffffffffffffffffffffffffffffffff16610a5861050d565b73ffffffffffffffffffffffffffffffffffffffff1614610ab757610a7b610b7d565b6040517f118cdaa7000000000000000000000000000000000000000000000000000000008152600401610aae9190610e01565b60405180910390fd5b565b60008060009054906101000a900473ffffffffffffffffffffffffffffffffffffffff169050816000806101000a81548173ffffffffffffffffffffffffffffffffffffffff021916908373ffffffffffffffffffffffffffffffffffffffff1602179055508173ffffffffffffffffffffffffffffffffffffffff168173ffffffffffffffffffffffffffffffffffffffff167f8be0079c531659141344cd1fd0a4f28419497f9722a3daafe3b4186f6b6457e060405160405180910390a35050565b600033905090565b60008115159050919050565b610b9a81610b85565b82525050565b6000602082019050610bb56000830184610b91565b92915050565b600080fd5b600080fd5b6000819050919050565b610bd881610bc5565b8114610be357600080fd5b50565b600081359050610bf581610bcf565b92915050565b600060ff82169050919050565b610c1181610bfb565b8114610c1c57600080fd5b50565b600081359050610c2e81610c08565b92915050565b600080fd5b600080fd5b600080fd5b60008083601f840112610c5957610c58610c34565b5b8235905067ffffffffffffffff811115610c7657610c75610c39565b5b602083019150836001820283011115610c9257610c91610c3e565b5b9250929050565b6000819050919050565b610cac81610c99565b8114610cb757600080fd5b50565b600081359050610cc981610ca3565b92915050565b60008060008060008060a08789031215610cec57610ceb610bbb565b5b6000610cfa89828a01610be6565b9650506020610d0b89828a01610be6565b9550506040610d1c89828a01610c1f565b945050606087013567ffffffffffffffff811115610d3d57610d3c610bc0565b5b610d4989828a01610c43565b93509350506080610d5c89828a01610cba565b9150509295509295509295565b600060208284031215610d7f57610d7e610bbb565b5b6000610d8d84828501610be6565b91505092915050565b610d9f81610bc5565b82525050565b6000602082019050610dba6000830184610d96565b92915050565b600073ffffffffffffffffffffffffffffffffffffffff82169050919050565b6000610deb82610dc0565b9050919050565b610dfb81610de0565b82525050565b6000602082019050610e166000830184610df2565b92915050565b600081519050919050565b600082825260208201905092915050565b6000819050602082019050919050565b610e5181610bc5565b82525050565b610e6081610bfb565b82525050565b600081519050919050565b600082825260208201905092915050565b60005b83811015610ea0578082015181840152602081019050610e85565b60008484015250505050565b6000601f19601f8301169050919050565b6000610ec882610e66565b610ed28185610e71565b9350610ee2818560208601610e82565b610eeb81610eac565b840191505092915050565b610eff81610de0565b82525050565b610f0e81610c99565b82525050565b600060e083016000830151610f2c6000860182610e48565b506020830151610f3f6020860182610e48565b506040830151610f526040860182610e57565b5060608301518482036060860152610f6a8282610ebd565b9150506080830151610f7f6080860182610ef6565b5060a0830151610f9260a0860182610f05565b5060c0830151610fa560c0860182610e48565b508091505092915050565b6000610fbc8383610f14565b905092915050565b6000602082019050919050565b6000610fdc82610e1c565b610fe68185610e27565b935083602082028501610ff885610e38565b8060005b8581101561103457848403895281516110158582610fb0565b945061102083610fc4565b925060208a01995050600181019050610ffc565b50829750879550505050505092915050565b600060208201905081810360008301526110608184610fd1565b905092915050565b61107181610de0565b811461107c57600080fd5b50565b60008135905061108e81611068565b92915050565b6000602082840312156110aa576110a9610bbb565b5b60006110b88482850161107f565b91505092915050565b600080604083850312156110d8576110d7610bbb565b5b60006110e685828601610be6565b92505060206110f785828601610be6565b9150509250929050565b61110a81610bfb565b82525050565b600082825260208201905092915050565b600061112c82610e66565b6111368185611110565b9350611146818560208601610e82565b61114f81610eac565b840191505092915050565b61116381610c99565b82525050565b600060e08201905061117e600083018a610d96565b61118b6020830189610d96565b6111986040830188611101565b81810360608301526111aa8187611121565b90506111b96080830186610df2565b6111c660a083018561115a565b6111d360c0830184610d96565b98975050505050505050565b7f4e6f7420617574686f72697a6564207265676973747261720000000000000000600082015250565b6000611215601883611110565b9150611220826111df565b602082019050919050565b6000602082019050818103600083015261124481611208565b9050919050565b7f446174612068617368206e616f20706f6465207365722076617a696f00000000600082015250565b6000611281601c83611110565b915061128c8261124b565b602082019050919050565b600060208201905081810360008301526112b081611274565b9050919050565b7f557365722068617368206e616f20706f6465207365722076617a696f00000000600082015250565b60006112ed601c83611110565b91506112f8826112b7565b602082019050919050565b6000602082019050818103600083015261131c816112e0565b9050919050565b7f4e487b7100000000000000000000000000000000000000000000000000000000600052604160045260246000fd5b7f4e487b7100000000000000000000000000000000000000000000000000000000600052602260045260246000fd5b6000600282049050600182168061139957607f821691505b6020821081036113ac576113ab611352565b5b50919050565b60008190508160005260206000209050919050565b60006020601f8301049050919050565b600082821b905092915050565b6000600883026114147fffffffffffffffffffffffffffffffffffffffffffffffffffffffffffffffff826113d7565b61141e86836113d7565b95508019841693508086168417925050509392505050565b6000819050919050565b600061145b61145661145184610bc5565b611436565b610bc5565b9050919050565b6000819050919050565b61147583611440565b61148961148182611462565b8484546113e4565b825550505050565b600090565b61149e611491565b6114a981848461146c565b505050565b5b818110156114cd576114c2600082611496565b6001810190506114af565b5050565b601f821115611512576114e3816113b2565b6114ec846113c7565b810160208510156114fb578190505b61150f611507856113c7565b8301826114ae565b50505b505050565b600082821c905092915050565b600061153560001984600802611517565b1980831691505092915050565b600061154e8383611524565b9150826002028217905092915050565b61156782610e66565b67ffffffffffffffff8111156115805761157f611323565b5b61158a8254611381565b6115958282856114d1565b600060209050601f8311600181146115c857600084156115b6578287015190505b6115c08582611542565b865550611628565b601f1984166115d6866113b2565b60005b828110156115fe578489015182556001820191506020850194506020810190506115d9565b8683101561161b5784890151611617601f891682611524565b8355505b6001600288020188555050505b505050505050565b82818337600083830152505050565b600061164b8385611110565b9350611658838584611630565b61166183610eac565b840190509392505050565b60006080820190506116816000830188611101565b818103602083015261169481868861163f565b90506116a36040830185610df2565b6116b0606083018461115a565b9695505050505050565b7f496e6469636520666f726120646f20696e74657276616c6f0000000000000000600082015250565b60006116f0601883611110565b91506116fb826116ba565b602082019050919050565b6000602082019050818103600083015261171f816116e3565b9050919050565b7f4e487b7100000000000000000000000000000000000000000000000000000000600052603260045260246000fdfea26469706673582212204280c8eaf242fd5ca6d7afaaf6128825110c4f99574dc3e52709b4a52f1e303f64736f6c634300081c0033",
  "linkReferences": {},
  "deployedLinkReferences": {}
}