{
  "_format": "hh-sol-artifact-1",
  "contractName": "AnimalTracking",
  "sourceName": "contracts/AnimalTracking.sol",
  "abi": [
    {
      "inputs": [],
      "name": "DataHashEmpty",
      "type": "error"
    },
    {
      "inputs": [],
      "name": "IndexOutOfRange",
      "type": "error"
    },
    {
      "inputs": [],
      "name": "NotAuthorizedRegistrar",
      "type": "error"
    },
    {
      "inputs": [],
      "name": "UserHashEmpty",
      "type": "error"
    },
    {
      "anonymous": false,
      "inputs": [
        {
          "indexed": false,
          "internalType": "address",
          "name": "previousAdmin",
          "type": "address"
        },
        {
          "indexed": false,
          "internalType": "address",
          "name": "newAdmin",
          "type": "address"
        }
      ],
      "name": "AdminChanged",
      "type": "event"
    },
    {
      "anonymous": false,
      "inputs": [
        {
          "indexed": true,
          "internalType": "address",
          "name": "beacon",
          "type": "address"
        }
      ],
      "name": "BeaconUpgraded",
      "type": "event"
    },
    {
      "anonymous": false,
      "inputs": [
        {
          "indexed": true,
          "internalType": "uint256",
          "name": "animalId",
          "type": "uint256"
        },
        {
          "indexed": true,
          "internalType": "uint256",
          "name": "eventId",
          "type": "uint256"
        },
        {
          "indexed": false,
          "internalType": "uint8",
          "name": "eventType",
          "type": "uint8"
        },
        {
          "indexed": false,
          "internalType": "string",
          "name": "dataHash",
          "type": "string"
        },
        {
          "indexed": false,
          "internalType": "address",
          "name": "registrant",
          "type": "address"
        },
        {
          "indexed": false,
          "internalType": "bytes32",
          "name": "userHash",
          "type": "bytes32"
        }
      ],
      "name": "EventRegistered",
      "type": "event"
    },
    {
      "anonymous": false,
      "inputs": [
        {
          "indexed": false,
          "internalType": "uint8",
          "name": "version",
          "type": "uint8"
        }
      ],
      "name": "Initialized",
      "type": "event"
    },
    {
      "anonymous": false,
      "inputs": [
        {
          "indexed": true,
          "internalType": "address",
          "name": "previousOwner",
          "type": "address"
        },
        {
          "indexed": true,
          "internalType": "address",
          "name": "newOwner",
          "type": "address"
        }
      ],
      "name": "OwnershipTransferred",
      "type": "event"
    },
    {
      "anonymous": false,
      "inputs": [
        {
          "indexed": false,
          "internalType": "address",
          "name": "account",
          "type": "address"
        }
      ],
      "name": "Paused",
      "type": "event"
    },
    {
      "anonymous": false,
      "inputs": [
        {
          "indexed": false,
          "internalType": "address",
          "name": "account",
          "type": "address"
        }
      ],
      "name": "Unpaused",
      "type": "event"
    },
    {
      "anonymous": false,
      "inputs": [
        {
          "indexed": true,
          "internalType": "address",
          "name": "implementation",
          "type": "address"
        }
      ],
      "name": "Upgraded",
      "type": "event"
    },
    {
      "inputs": [
        {
          "internalType": "address",
          "name": "_registrar",
          "type": "address"
        }
      ],
      "name": "addRegistrar",
      "outputs": [],
      "stateMutability": "nonpayable",
      "type": "function"
    },
    {
      "inputs": [
        {
          "internalType": "uint256",
          "name": "_animalId",
          "type": "uint256"
        },
        {
          "internalType": "uint256",
          "name": "_index",
          "type": "uint256"
        }
      ],
      "name": "getEventByIndex",
      "outputs": [
        {
          "internalType": "uint256",
          "name": "eventId",
          "type": "uint256"
        },
        {
          "internalType": "uint256",
          "name": "animalId",
          "type": "uint256"
        },
        {
          "internalType": "uint8",
          "name": "eventType",
          "type": "uint8"
        },
        {
          "internalType": "string",
          "name": "dataHash",
          "type": "string"
        },
        {
          "internalType": "address",
          "name": "registrant",
          "type": "address"
        },
        {
          "internalType": "bytes32",
          "name": "userHash",
          "type": "bytes32"
        },
        {
          "internalType": "uint256",
          "name": "timestamp",
          "type": "uint256"
        }
      ],
      "stateMutability": "view",
      "type": "function"
    },
    {
      "inputs": [
        {
          "internalType": "uint256",
          "name": "_animalId",
          "type": "uint256"
        }
      ],
      "name": "getEventsByAnimal",
      "outputs": [
        {
          "components": [
            {
              "internalType": "uint256",
              "name": "eventId",
              "type": "uint256"
            },
            {
              "internalType": "uint256",
              "name": "animalId",
              "type": "uint256"
            },
            {
              "internalType": "uint8",
              "name": "eventType",
              "type": "uint8"
            },
            {
              "internalType": "string",
              "name": "dataHash",
              "type": "string"
            },
            {
              "internalType": "address",
              "name": "registrant",
              "type": "address"
            },
            {
              "internalType": "bytes32",
              "name": "userHash",
              "type": "bytes32"
            },
            {
              "internalType": "uint256",
              "name": "timestamp",
              "type": "uint256"
            }
          ],
          "internalType": "struct AnimalTracking.CriticEvent[]",
          "name": "",
          "type": "tuple[]"
        }
      ],
      "stateMutability": "view",
      "type": "function"
    },
    {
      "inputs": [
        {
          "internalType": "uint256",
          "name": "_animalId",
          "type": "uint256"
        }
      ],
      "name": "getNumberOfEvents",
      "outputs": [
        {
          "internalType": "uint256",
          "name": "",
          "type": "uint256"
        }
      ],
      "stateMutability": "view",
      "type": "function"
    },
    {
      "inputs": [],
      "name": "initialize",
      "outputs": [],
      "stateMutability": "nonpayable",
      "type": "function"
    },
    {
      "inputs": [],
      "name": "isActive",
      "outputs": [
        {
          "internalType": "bool",
          "name": "",
          "type": "bool"
        }
      ],
      "stateMutability": "view",
      "type": "function"
    },
    {
      "inputs": [],
      "name": "owner",
      "outputs": [
        {
          "internalType": "address",
          "name": "",
          "type": "address"
        }
      ],
      "stateMutability": "view",
      "type": "function"
    },
    {
      "inputs": [],
      "name": "pause",
      "outputs": [],
      "stateMutability": "nonpayable",
      "type": "function"
    },
    {
      "inputs": [],
      "name": "paused",
      "outputs": [
        {
          "internalType": "bool",
          "name": "",
          "type": "bool"
        }
      ],
      "stateMutability": "view",
      "type": "function"
    },
    {
      "inputs": [],
      "name": "proxiableUUID",
      "outputs": [
        {
          "internalType": "bytes32",
          "name": "",
          "type": "bytes32"
        }
      ],
      "stateMutability": "view",
      "type": "function"
    },
    {
      "inputs": [
        {
          "internalType": "uint256",
          "name": "_eventId",
          "type": "uint256"
        },
        {
          "internalType": "uint256",
          "name": "_animalId",
          "type": "uint256"
        },
        {
          "internalType": "uint8",
          "name": "_eventType",
          "type": "uint8"
        },
        {
          "internalType": "string",
          "name": "_dataHash",
          "type": "string"
        },
        {
          "internalType": "bytes32",
          "name": "_userHash",
          "type": "bytes32"
        }
      ],
      "name": "registerEvent",
      "outputs": [],
      "stateMutability": "nonpayable",
      "type": "function"
    },
    {
      "inputs": [
        {
          "internalType": "address",
          "name": "_registrar",
          "type": "address"
        }
      ],
      "name": "removeRegistrar",
      "outputs": [],
      "stateMutability": "nonpayable",
      "type": "function"
    },
    {
      "inputs": [],
      "name": "renounceOwnership",
      "outputs": [],
      "stateMutability": "nonpayable",
      "type": "function"
    },
    {
      "inputs": [
        {
          "internalType": "address",
          "name": "newOwner",
          "type": "address"
        }
      ],
      "name": "transferOwnership",
      "outputs": [],
      "stateMutability": "nonpayable",
      "type": "function"
    },
    {
      "inputs": [],
      "name": "unpause",
      "outputs": [],
      "stateMutability": "nonpayable",
      "type": "function"
    },
    {
      "inputs": [
        {
          "internalType": "address",
          "name": "newImplementation",
          "type": "address"
        }
      ],
      "name": "upgradeTo",
      "outputs": [],
      "stateMutability": "nonpayable",
      "type": "function"
    },
    {
      "inputs": [
        {
          "internalType": "address",
          "name": "newImplementation",
          "type": "address"
        },
        {
          "internalType": "bytes",
          "name": "data",
          "type": "bytes"
        }
      ],
      "name": "upgradeToAndCall",
      "outputs": [],
      "stateMutability": "payable",
      "type": "function"
    }
  ],
  "bytecode": "0x60a06040523073ffffffffffffffffffffffffffffffffffffffff1660809073ffffffffffffffffffffffffffffffffffffffff1681525034801561004357600080fd5b50608051612e4b61007b600039600081816103c30152818161045101528181610832015281816108c001526109700152612e4b6000f3fe6080604052600436106100fe5760003560e01c8063715018a61161009557806390ecd3f01161006457806390ecd3f0146102b6578063af92a693146102f3578063ba904eed1461031c578063f2fde38b14610345578063fa2aeb121461036e576100fe565b8063715018a6146102465780638129fc1c1461025d5780638456cb59146102745780638da5cb5b1461028b576100fe565b80634f1ef286116100d15780634f1ef2861461019757806352d1902d146101b35780635c975abb146101de5780636eaa4bed14610209576100fe565b806322f3e2d4146101035780633659cfe61461012e5780633cc6b52f146101575780633f4ba83a14610180575b600080fd5b34801561010f57600080fd5b506101186103b1565b6040516101259190611a8c565b60405180910390f35b34801561013a57600080fd5b5061015560048036038101906101509190611b19565b6103c1565b005b34801561016357600080fd5b5061017e60048036038101906101799190611c50565b610549565b005b34801561018c57600080fd5b5061019561081e565b005b6101b160048036038101906101ac9190611e2b565b610830565b005b3480156101bf57600080fd5b506101c861096c565b6040516101d59190611e96565b60405180910390f35b3480156101ea57600080fd5b506101f3610a25565b6040516102009190611a8c565b60405180910390f35b34801561021557600080fd5b50610230600480360381019061022b9190611eb1565b610a3c565b60405161023d9190611eed565b60405180910390f35b34801561025257600080fd5b5061025b610a5c565b005b34801561026957600080fd5b50610272610a70565b005b34801561028057600080fd5b50610289610c1d565b005b34801561029757600080fd5b506102a0610c2f565b6040516102ad9190611f17565b60405180910390f35b3480156102c257600080fd5b506102dd60048036038101906102d89190611eb1565b610c59565b6040516102ea919061214b565b60405180910390f35b3480156102ff57600080fd5b5061031a60048036038101906103159190611b19565b610df8565b005b34801561032857600080fd5b50610343600480360381019061033e9190611b19565b610e5b565b005b34801561035157600080fd5b5061036c60048036038101906103679190611b19565b610ebe565b005b34801561037a57600080fd5b506103956004803603810190610390919061216d565b610f41565b6040516103a89796959493929190612206565b60405180910390f35b60006103bb610a25565b15905090565b7f000000000000000000000000000000000000000000000000000000000000000073ffffffffffffffffffffffffffffffffffffffff163073ffffffffffffffffffffffffffffffffffffffff160361044f576040517f08c379a0000000000000000000000000000000000000000000000000000000008152600401610446906122ee565b60405180910390fd5b7f000000000000000000000000000000000000000000000000000000000000000073ffffffffffffffffffffffffffffffffffffffff1661048e611149565b73ffffffffffffffffffffffffffffffffffffffff16146104e4576040517f08c379a00000000000000000000000000000000000000000000000000000000081526004016104db90612380565b60405180910390fd5b6104ed816111a0565b61054681600067ffffffffffffffff81111561050c5761050b611d00565b5b6040519080825280601f01601f19166020018201604052801561053e5781602001600182028036833780820191505090505b5060006111ab565b50565b60fc60003373ffffffffffffffffffffffffffffffffffffffff1673ffffffffffffffffffffffffffffffffffffffff16815260200190815260200160002060009054906101000a900460ff166105cc576040517f946d7b8400000000000000000000000000000000000000000000000000000000815260040160405180910390fd5b6105d4611319565b60008383905003610611576040517f9092630200000000000000000000000000000000000000000000000000000000815260040160405180910390fd5b6000801b810361064d576040517fb2c9428200000000000000000000000000000000000000000000000000000000815260040160405180910390fd5b60006040518060e001604052808881526020018781526020018660ff16815260200185858080601f016020809104026020016040519081016040528093929190818152602001838380828437600081840152601f19601f8201169050808301925050505050505081526020016106c1611363565b73ffffffffffffffffffffffffffffffffffffffff16815260200183815260200142815250905060fb6000878152602001908152602001600020819080600181540180825580915050600190039060005260206000209060070201600090919091909150600082015181600001556020820151816001015560408201518160020160006101000a81548160ff021916908360ff160217905550606082015181600301908161076f91906125ac565b5060808201518160040160006101000a81548173ffffffffffffffffffffffffffffffffffffffff021916908373ffffffffffffffffffffffffffffffffffffffff16021790555060a0820151816005015560c08201518160060155505086867f1932cedb8a340d2c5ab9463a9f8c8ca8355354c24c44a075a485b813614007618787876107fb611363565b8860405161080d9594939291906126ab565b60405180910390a350505050505050565b61082661136b565b61082e6113e9565b565b7f000000000000000000000000000000000000000000000000000000000000000073ffffffffffffffffffffffffffffffffffffffff163073ffffffffffffffffffffffffffffffffffffffff16036108be576040517f08c379a00000000000000000000000000000000000000000000000000000000081526004016108b5906122ee565b60405180910390fd5b7f000000000000000000000000000000000000000000000000000000000000000073ffffffffffffffffffffffffffffffffffffffff166108fd611149565b73ffffffffffffffffffffffffffffffffffffffff1614610953576040517f08c379a000000000000000000000000000000000000000000000000000000000815260040161094a90612380565b60405180910390fd5b61095c826111a0565b610968828260016111ab565b5050565b60007f000000000000000000000000000000000000000000000000000000000000000073ffffffffffffffffffffffffffffffffffffffff163073ffffffffffffffffffffffffffffffffffffffff16146109fc576040517f08c379a00000000000000000000000000000000000000000000000000000000081526004016109f39061276b565b60405180910390fd5b7f360894a13ba1a3210667c828492db98dca3e2076cc3735a920a3ca505d382bbc60001b905090565b6000606560009054906101000a900460ff16905090565b600060fb6000838152602001908152602001600020805490509050919050565b610a6461136b565b610a6e600061144c565b565b60008060019054906101000a900460ff16159050808015610aa15750600160008054906101000a900460ff1660ff16105b80610ace5750610ab030611512565b158015610acd5750600160008054906101000a900460ff1660ff16145b5b610b0d576040517f08c379a0000000000000000000000000000000000000000000000000000000008152600401610b04906127fd565b60405180910390fd5b60016000806101000a81548160ff021916908360ff1602179055508015610b4a576001600060016101000a81548160ff0219169083151502179055505b610b52611535565b610b5a61158e565b610b626115e7565b600160fc6000610b70611363565b73ffffffffffffffffffffffffffffffffffffffff1673ffffffffffffffffffffffffffffffffffffffff16815260200190815260200160002060006101000a81548160ff0219169083151502179055508015610c1a5760008060016101000a81548160ff0219169083151502179055507f7f26b83ff96e1f2b6a682f133852f6798a09c465da95921460cefb38474024986001604051610c119190612858565b60405180910390a15b50565b610c2561136b565b610c2d611638565b565b6000603360009054906101000a900473ffffffffffffffffffffffffffffffffffffffff16905090565b606060fb6000838152602001908152602001600020805480602002602001604051908101604052809291908181526020016000905b82821015610ded57838290600052602060002090600702016040518060e001604052908160008201548152602001600182015481526020016002820160009054906101000a900460ff1660ff1660ff168152602001600382018054610cf2906123cf565b80601f0160208091040260200160405190810160405280929190818152602001828054610d1e906123cf565b8015610d6b5780601f10610d4057610100808354040283529160200191610d6b565b820191906000526020600020905b815481529060010190602001808311610d4e57829003601f168201915b505050505081526020016004820160009054906101000a900473ffffffffffffffffffffffffffffffffffffffff1673ffffffffffffffffffffffffffffffffffffffff1673ffffffffffffffffffffffffffffffffffffffff1681526020016005820154815260200160068201548152505081526020019060010190610c8e565b505050509050919050565b610e0061136b565b600160fc60008373ffffffffffffffffffffffffffffffffffffffff1673ffffffffffffffffffffffffffffffffffffffff16815260200190815260200160002060006101000a81548160ff02191690831515021790555050565b610e6361136b565b600060fc60008373ffffffffffffffffffffffffffffffffffffffff1673ffffffffffffffffffffffffffffffffffffffff16815260200190815260200160002060006101000a81548160ff02191690831515021790555050565b610ec661136b565b600073ffffffffffffffffffffffffffffffffffffffff168173ffffffffffffffffffffffffffffffffffffffff1603610f35576040517f08c379a0000000000000000000000000000000000000000000000000000000008152600401610f2c906128e5565b60405180910390fd5b610f3e8161144c565b50565b60008060006060600080600060fb60008a8152602001908152602001600020805490508810610f9c576040517f1390f2a100000000000000000000000000000000000000000000000000000000815260040160405180910390fd5b600060fb60008b81526020019081526020016000208981548110610fc357610fc2612905565b5b90600052602060002090600702016040518060e001604052908160008201548152602001600182015481526020016002820160009054906101000a900460ff1660ff1660ff16815260200160038201805461101d906123cf565b80601f0160208091040260200160405190810160405280929190818152602001828054611049906123cf565b80156110965780601f1061106b57610100808354040283529160200191611096565b820191906000526020600020905b81548152906001019060200180831161107957829003601f168201915b505050505081526020016004820160009054906101000a900473ffffffffffffffffffffffffffffffffffffffff1673ffffffffffffffffffffffffffffffffffffffff1673ffffffffffffffffffffffffffffffffffffffff168152602001600582015481526020016006820154815250509050806000015181602001518260400151836060015184608001518560a001518660c0015197509750975097509750975097505092959891949750929550565b60006111777f360894a13ba1a3210667c828492db98dca3e2076cc3735a920a3ca505d382bbc60001b61169b565b60000160009054906101000a900473ffffffffffffffffffffffffffffffffffffffff16905090565b6111a861136b565b50565b6111d77f4910fdfa16fed3260ed0e7147f7cc6da11a60208b5b9406d12a635614ffd914360001b6116a5565b60000160009054906101000a900460ff16156111fb576111f6836116af565b611314565b8273ffffffffffffffffffffffffffffffffffffffff166352d1902d6040518163ffffffff1660e01b8152600401602060405180830381865afa92505050801561126357506040513d601f19601f820116820180604052508101906112609190612949565b60015b6112a2576040517f08c379a0000000000000000000000000000000000000000000000000000000008152600401611299906129e8565b60405180910390fd5b7f360894a13ba1a3210667c828492db98dca3e2076cc3735a920a3ca505d382bbc60001b8114611307576040517f08c379a00000000000000000000000000000000000000000000000000000000081526004016112fe90612a7a565b60405180910390fd5b50611313838383611768565b5b505050565b611321610a25565b15611361576040517f08c379a000000000000000000000000000000000000000000000000000000000815260040161135890612ae6565b60405180910390fd5b565b600033905090565b611373611363565b73ffffffffffffffffffffffffffffffffffffffff16611391610c2f565b73ffffffffffffffffffffffffffffffffffffffff16146113e7576040517f08c379a00000000000000000000000000000000000000000000000000000000081526004016113de90612b52565b60405180910390fd5b565b6113f1611794565b6000606560006101000a81548160ff0219169083151502179055507f5db9ee0a495bf2e6ff9c91a7834c1ba4fdd244a5e8aa4e537bd38aeae4b073aa611435611363565b6040516114429190611f17565b60405180910390a1565b6000603360009054906101000a900473ffffffffffffffffffffffffffffffffffffffff16905081603360006101000a81548173ffffffffffffffffffffffffffffffffffffffff021916908373ffffffffffffffffffffffffffffffffffffffff1602179055508173ffffffffffffffffffffffffffffffffffffffff168173ffffffffffffffffffffffffffffffffffffffff167f8be0079c531659141344cd1fd0a4f28419497f9722a3daafe3b4186f6b6457e060405160405180910390a35050565b6000808273ffffffffffffffffffffffffffffffffffffffff163b119050919050565b600060019054906101000a900460ff16611584576040517f08c379a000000000000000000000000000000000000000000000000000000000815260040161157b90612be4565b60405180910390fd5b61158c6117dd565b565b600060019054906101000a900460ff166115dd576040517f08c379a00000000000000000000000000000000000000000000000000000000081526004016115d490612be4565b60405180910390fd5b6115e561183e565b565b600060019054906101000a900460ff16611636576040517f08c379a000000000000000000000000000000000000000000000000000000000815260040161162d90612be4565b60405180910390fd5b565b611640611319565b6001606560006101000a81548160ff0219169083151502179055507f62e78cea01bee320cd4e420270b5ea74000d11b0c9f74754ebdbfc544b05a258611684611363565b6040516116919190611f17565b60405180910390a1565b6000819050919050565b6000819050919050565b6116b881611512565b6116f7576040517f08c379a00000000000000000000000000000000000000000000000000000000081526004016116ee90612c76565b60405180910390fd5b806117247f360894a13ba1a3210667c828492db98dca3e2076cc3735a920a3ca505d382bbc60001b61169b565b60000160006101000a81548173ffffffffffffffffffffffffffffffffffffffff021916908373ffffffffffffffffffffffffffffffffffffffff16021790555050565b611771836118aa565b60008251118061177e5750805b1561178f5761178d83836118f9565b505b505050565b61179c610a25565b6117db576040517f08c379a00000000000000000000000000000000000000000000000000000000081526004016117d290612ce2565b60405180910390fd5b565b600060019054906101000a900460ff1661182c576040517f08c379a000000000000000000000000000000000000000000000000000000000815260040161182390612be4565b60405180910390fd5b61183c611837611363565b61144c565b565b600060019054906101000a900460ff1661188d576040517f08c379a000000000000000000000000000000000000000000000000000000000815260040161188490612be4565b60405180910390fd5b6000606560006101000a81548160ff021916908315150217905550565b6118b3816116af565b8073ffffffffffffffffffffffffffffffffffffffff167fbc7cd75a20ee27fd9adebab32041f755214dbc6bffa90cc0225b39da2e5c2d3b60405160405180910390a250565b606061191e8383604051806060016040528060278152602001612def60279139611926565b905092915050565b60606000808573ffffffffffffffffffffffffffffffffffffffff16856040516119509190612d49565b600060405180830381855af49150503d806000811461198b576040519150601f19603f3d011682016040523d82523d6000602084013e611990565b606091505b50915091506119a1868383876119ac565b925050509392505050565b60608315611a0e576000835103611a06576119c685611512565b611a05576040517f08c379a00000000000000000000000000000000000000000000000000000000081526004016119fc90612dac565b60405180910390fd5b5b829050611a19565b611a188383611a21565b5b949350505050565b600082511115611a345781518083602001fd5b806040517f08c379a0000000000000000000000000000000000000000000000000000000008152600401611a689190612dcc565b60405180910390fd5b60008115159050919050565b611a8681611a71565b82525050565b6000602082019050611aa16000830184611a7d565b92915050565b6000604051905090565b600080fd5b600080fd5b600073ffffffffffffffffffffffffffffffffffffffff82169050919050565b6000611ae682611abb565b9050919050565b611af681611adb565b8114611b0157600080fd5b50565b600081359050611b1381611aed565b92915050565b600060208284031215611b2f57611b2e611ab1565b5b6000611b3d84828501611b04565b91505092915050565b6000819050919050565b611b5981611b46565b8114611b6457600080fd5b50565b600081359050611b7681611b50565b92915050565b600060ff82169050919050565b611b9281611b7c565b8114611b9d57600080fd5b50565b600081359050611baf81611b89565b92915050565b600080fd5b600080fd5b600080fd5b60008083601f840112611bda57611bd9611bb5565b5b8235905067ffffffffffffffff811115611bf757611bf6611bba565b5b602083019150836001820283011115611c1357611c12611bbf565b5b9250929050565b6000819050919050565b611c2d81611c1a565b8114611c3857600080fd5b50565b600081359050611c4a81611c24565b92915050565b60008060008060008060a08789031215611c6d57611c6c611ab1565b5b6000611c7b89828a01611b67565b9650506020611c8c89828a01611b67565b9550506040611c9d89828a01611ba0565b945050606087013567ffffffffffffffff811115611cbe57611cbd611ab6565b5b611cca89828a01611bc4565b93509350506080611cdd89828a01611c3b565b9150509295509295509295565b600080fd5b6000601f19601f8301169050919050565b7f4e487b7100000000000000000000000000000000000000000000000000000000600052604160045260246000fd5b611d3882611cef565b810181811067ffffffffffffffff82111715611d5757611d56611d00565b5b80604052505050565b6000611d6a611aa7565b9050611d768282611d2f565b919050565b600067ffffffffffffffff821115611d9657611d95611d00565b5b611d9f82611cef565b9050602081019050919050565b82818337600083830152505050565b6000611dce611dc984611d7b565b611d60565b905082815260208101848484011115611dea57611de9611cea565b5b611df5848285611dac565b509392505050565b600082601f830112611e1257611e11611bb5565b5b8135611e22848260208601611dbb565b91505092915050565b60008060408385031215611e4257611e41611ab1565b5b6000611e5085828601611b04565b925050602083013567ffffffffffffffff811115611e7157611e70611ab6565b5b611e7d85828601611dfd565b9150509250929050565b611e9081611c1a565b82525050565b6000602082019050611eab6000830184611e87565b92915050565b600060208284031215611ec757611ec6611ab1565b5b6000611ed584828501611b67565b91505092915050565b611ee781611b46565b82525050565b6000602082019050611f026000830184611ede565b92915050565b611f1181611adb565b82525050565b6000602082019050611f2c6000830184611f08565b92915050565b600081519050919050565b600082825260208201905092915050565b6000819050602082019050919050565b611f6781611b46565b82525050565b611f7681611b7c565b82525050565b600081519050919050565b600082825260208201905092915050565b60005b83811015611fb6578082015181840152602081019050611f9b565b60008484015250505050565b6000611fcd82611f7c565b611fd78185611f87565b9350611fe7818560208601611f98565b611ff081611cef565b840191505092915050565b61200481611adb565b82525050565b61201381611c1a565b82525050565b600060e0830160008301516120316000860182611f5e565b5060208301516120446020860182611f5e565b5060408301516120576040860182611f6d565b506060830151848203606086015261206f8282611fc2565b91505060808301516120846080860182611ffb565b5060a083015161209760a086018261200a565b5060c08301516120aa60c0860182611f5e565b508091505092915050565b60006120c18383612019565b905092915050565b6000602082019050919050565b60006120e182611f32565b6120eb8185611f3d565b9350836020820285016120fd85611f4e565b8060005b85811015612139578484038952815161211a85826120b5565b9450612125836120c9565b925060208a01995050600181019050612101565b50829750879550505050505092915050565b6000602082019050818103600083015261216581846120d6565b905092915050565b6000806040838503121561218457612183611ab1565b5b600061219285828601611b67565b92505060206121a385828601611b67565b9150509250929050565b6121b681611b7c565b82525050565b600082825260208201905092915050565b60006121d882611f7c565b6121e281856121bc565b93506121f2818560208601611f98565b6121fb81611cef565b840191505092915050565b600060e08201905061221b600083018a611ede565b6122286020830189611ede565b61223560408301886121ad565b818103606083015261224781876121cd565b90506122566080830186611f08565b61226360a0830185611e87565b61227060c0830184611ede565b98975050505050505050565b7f46756e6374696f6e206d7573742062652063616c6c6564207468726f7567682060008201527f64656c656761746563616c6c0000000000000000000000000000000000000000602082015250565b60006122d8602c836121bc565b91506122e38261227c565b604082019050919050565b60006020820190508181036000830152612307816122cb565b9050919050565b7f46756e6374696f6e206d7573742062652063616c6c6564207468726f7567682060008201527f6163746976652070726f78790000000000000000000000000000000000000000602082015250565b600061236a602c836121bc565b91506123758261230e565b604082019050919050565b600060208201905081810360008301526123998161235d565b9050919050565b7f4e487b7100000000000000000000000000000000000000000000000000000000600052602260045260246000fd5b600060028204905060018216806123e757607f821691505b6020821081036123fa576123f96123a0565b5b50919050565b60008190508160005260206000209050919050565b60006020601f8301049050919050565b600082821b905092915050565b6000600883026124627fffffffffffffffffffffffffffffffffffffffffffffffffffffffffffffffff82612425565b61246c8683612425565b95508019841693508086168417925050509392505050565b6000819050919050565b60006124a96124a461249f84611b46565b612484565b611b46565b9050919050565b6000819050919050565b6124c38361248e565b6124d76124cf826124b0565b848454612432565b825550505050565b600090565b6124ec6124df565b6124f78184846124ba565b505050565b5b8181101561251b576125106000826124e4565b6001810190506124fd565b5050565b601f8211156125605761253181612400565b61253a84612415565b81016020851015612549578190505b61255d61255585612415565b8301826124fc565b50505b505050565b600082821c905092915050565b600061258360001984600802612565565b1980831691505092915050565b600061259c8383612572565b9150826002028217905092915050565b6125b582611f7c565b67ffffffffffffffff8111156125ce576125cd611d00565b5b6125d882546123cf565b6125e382828561251f565b600060209050601f8311600181146126165760008415612604578287015190505b61260e8582612590565b865550612676565b601f19841661262486612400565b60005b8281101561264c57848901518255600182019150602085019450602081019050612627565b868310156126695784890151612665601f891682612572565b8355505b6001600288020188555050505b505050505050565b600061268a83856121bc565b9350612697838584611dac565b6126a083611cef565b840190509392505050565b60006080820190506126c060008301886121ad565b81810360208301526126d381868861267e565b90506126e26040830185611f08565b6126ef6060830184611e87565b9695505050505050565b7f555550535570677261646561626c653a206d757374206e6f742062652063616c60008201527f6c6564207468726f7567682064656c656761746563616c6c0000000000000000602082015250565b60006127556038836121bc565b9150612760826126f9565b604082019050919050565b6000602082019050818103600083015261278481612748565b9050919050565b7f496e697469616c697a61626c653a20636f6e747261637420697320616c72656160008201527f647920696e697469616c697a6564000000000000000000000000000000000000602082015250565b60006127e7602e836121bc565b91506127f28261278b565b604082019050919050565b60006020820190508181036000830152612816816127da565b9050919050565b6000819050919050565b600061284261283d6128388461281d565b612484565b611b7c565b9050919050565b61285281612827565b82525050565b600060208201905061286d6000830184612849565b92915050565b7f4f776e61626c653a206e6577206f776e657220697320746865207a65726f206160008201527f6464726573730000000000000000000000000000000000000000000000000000602082015250565b60006128cf6026836121bc565b91506128da82612873565b604082019050919050565b600060208201905081810360008301526128fe816128c2565b9050919050565b7f4e487b7100000000000000000000000000000000000000000000000000000000600052603260045260246000fd5b60008151905061294381611c24565b92915050565b60006020828403121561295f5761295e611ab1565b5b600061296d84828501612934565b91505092915050565b7f45524331393637557067726164653a206e657720696d706c656d656e7461746960008201527f6f6e206973206e6f742055555053000000000000000000000000000000000000602082015250565b60006129d2602e836121bc565b91506129dd82612976565b604082019050919050565b60006020820190508181036000830152612a01816129c5565b9050919050565b7f45524331393637557067726164653a20756e737570706f727465642070726f7860008201527f6961626c65555549440000000000000000000000000000000000000000000000602082015250565b6000612a646029836121bc565b9150612a6f82612a08565b604082019050919050565b60006020820190508181036000830152612a9381612a57565b9050919050565b7f5061757361626c653a2070617573656400000000000000000000000000000000600082015250565b6000612ad06010836121bc565b9150612adb82612a9a565b602082019050919050565b60006020820190508181036000830152612aff81612ac3565b9050919050565b7f4f776e61626c653a2063616c6c6572206973206e6f7420746865206f776e6572600082015250565b6000612b3c6020836121bc565b9150612b4782612b06565b602082019050919050565b60006020820190508181036000830152612b6b81612b2f565b9050919050565b7f496e697469616c697a61626c653a20636f6e7472616374206973206e6f74206960008201527f6e697469616c697a696e67000000000000000000000000000000000000000000602082015250565b6000612bce602b836121bc565b9150612bd982612b72565b604082019050919050565b60006020820190508181036000830152612bfd81612bc1565b9050919050565b7f455243313936373a206e657720696d706c656d656e746174696f6e206973206e60008201527f6f74206120636f6e747261637400000000000000000000000000000000000000602082015250565b6000612c60602d836121bc565b9150612c6b82612c04565b604082019050919050565b60006020820190508181036000830152612c8f81612c53565b9050919050565b7f5061757361626c653a206e6f7420706175736564000000000000000000000000600082015250565b6000612ccc6014836121bc565b9150612cd782612c96565b602082019050919050565b60006020820190508181036000830152612cfb81612cbf565b9050919050565b600081519050919050565b600081905092915050565b6000612d2382612d02565b612d2d8185612d0d565b9350612d3d818560208601611f98565b80840191505092915050565b6000612d558284612d18565b915081905092915050565b7f416464726573733a2063616c6c20746f206e6f6e2d636f6e7472616374000000600082015250565b6000612d96601d836121bc565b9150612da182612d60565b602082019050919050565b60006020820190508181036000830152612dc581612d89565b9050919050565b60006020820190508181036000830152612de681846121cd565b90509291505056fe416464726573733a206c6f772d6c6576656c2064656c65676174652063616c6c206661696c6564a2646970667358221220227c6d23a8d0b6d53318f7aa39030ba45b926273b9b25f40fb599e88d45b03c764736f6c634300081c0033",
  "linkReferences": {},
  "deployedLinkReferences": {}
}